:020000040800F2
:10000000B00500209D340008453300084733000840
:1000100000000000000000000000000000000000E0
:10002000000000000000000000000000493300084C
:1000300000000000000000004B3300084D330008B2
:100040001F12000800000000331500083B180008CC
:100050003F180008431800084B32000863340008BA
:10006000000000008B340008BF340008C1340008D1
:10007000C3340008C5340008C7340008000000007D
:10008000C9340008000000000000000055330008DB
:1000900000000000CB340008CD340008CF34000845
:1000A00000000000D134000800000000D334000834
:1000B000F0B5A5B004000D002A9E00BF73A003C8D0
:1000C0006F4603C7089506A83B21465400201190AF
:1000D00004940392029313E0039C3500049F21785B
:1000E0000898B8470890002800D1B6E01198401C45
:1000F0001190641C6D1EF2D104970398801903902F
:1001000003980078252809D100260B960C960D96A9
:100110000E960F9610960021039C0FE06A46002170
:10012000C943039801F030F8060001D1119896E018
:10013000D2D50126E1E7080001210143641C2078A3
:100140002028F8D023280CD02B2804D02D2805D027
:10015000302809D085E008000221EEE708000421DC
:10016000EBE708000821E8E708001021E5E713960F
:100170000AE0139A444B9A4205DA93009A18520007
:10018000101830381390641C20780200303A0A2A84
:10019000EFD320782E2803D00020C043129028E00F
:1001A000641C20782A280AD102980068029A1060FC
:1001B0000268001D029B18601292641C19E02D2831
:1001C00002D12D22641C00E0002212960CE0002ACD
:1001D00009D1129B2C4DAB4205DA9D00EB185B0058
:1001E000181830381290641C20780300303B0A2B1A
:1001F000EDD306AD29872778390000BF25A000F090
:10020000D5FF002801D0641C00E000273A202F54BD
:10021000285C682804D1207868280AD1622005E08B
:100220006C2806D120786C2803D171203A216854BB
:10023000641C16A80A902378029A06A9049800F074
:1002400067F8611C0391002807D116AA06A9049833
:1002500000F0F8F9002800D452E70020C04325B090
:10026000F0BD2A2883D10298026802601068121D2E
:10027000029B1A601390002804D542421392080092
:1002800004210143641C84E7CBCCCC0C00000000AB
:1002900000000000686A6C747A4C00000B00622851
:1002A0001CD068280DD06A2803D06C2823D0712870
:1002B00021D11A68D21D072082431A6003CA1A602E
:1002C0007047002A19681960086803D0091D196071
:1002D00000B217E0091D196080B217E0002A196802
:1002E0001960086803D0091D196040B20AE0091DB1
:1002F0001960C0B20AE0002A19681960086803D0C2
:10030000091D1960C1177047091D19600021704748
:100310007CB50C0011001E0025693200253A00D181
:100320004AE11C3A00D182E0121F022A00D87EE086
:100330000E3A00D104E1521F58D0093A77D0921EEC
:1003400016D0521E34D0521E022A70D9121F2FD03E
:10035000521F00D194E0521E48D0521E00D1DEE060
:10036000D21E00D1FAE0921E40D0D21E3ED029E12A
:100370003A22A25C6C2A09D06069421C62610A6858
:100380000A601368121D0A602B5425E10A680A608E
:100390001368121D0A60009300210191C943216373
:1003A0006A46210000F0D0F9002800D414E100E1F1
:1003B00001223A20205CFFF771FF03C4083C0029AA
:1003C00004DA6069411C61612D210DE0208F8107F5
:1003D00004D56069411C61612B2105E0C00721D56E
:1003E0006069411C6161202129541BE000223A20F0
:1003F000205CFFF753FF03C4083C3820205C000753
:1004000010D503CC083C002901D100280AD02020B7
:100410003043782806D1606930212954401C411CA2
:1004200061612E5460692818E060310084E008683A
:10043000C01D0722904308600CC808600CC4083C2B
:1004400003CC083CC80F04D06069411C61612D21B8
:100450000DE0208F810704D56069411C61612B216B
:1004600005E0C00704D56069411C61612021295461
:1004700060692818E0603100200000F083FAABE0EA
:100480003B20205C002803D00024E44353A074E008
:100490003A20205C622808D0682823D06A2812D02D
:1004A0006C282ED071280ED02BE00A680A601068E4
:1004B000121D0A60002803D10024E4434DA05CE033
:1004C000E16A017088E0086808600268001D086041
:1004D000002A03D10024E44346A04EE0E06AC1179D
:1004E00003C279E00A680A601068121D0A600028D9
:1004F00004D10024E44300BF3EA03EE0E16A018055
:100500006AE00A680A601068121D0A60002803D1B8
:100510000024E44337A030E0E16A01605CE0086851
:1005200008600268001D08600020C04300211040E0
:1005300003C4083CE5607821200000F06BF94BE033
:100540006C223A23E2540B680B601A681B1D0B6087
:10055000002A29D10024E4432CA00EE03A22A25C18
:100560006C2AF0D0086808600568001D0860E56026
:10057000002D06D10024E4432BA000F025FE201A14
:1005800076BD266B002E03D5280000F041FE09E061
:1005900032000021280000F043FE002801D0401B5B
:1005A00000E03000A06117E0210000F0CDF8002845
:1005B00012D50020C04376BD6069411C61612521D0
:1005C000295409E06169481C606125226A543100A0
:1005D00002D0411C61612E54002076BD7072696E9C
:1005E00074665F733A20256E20646973616C6C6F6A
:1005F000776564007072696E74663A206261642087
:10060000256E20617267756D656E74007072696E1B
:1006100074665F733A2062616420256C7320617296
:1006200067756D656E7400007072696E74665F73D5
:100630003A2062616420257320617267756D656E72
:1006400074000000F8B506000C001700606B6169CB
:10065000401A216A401AA169401A616A401AE16988
:10066000401AA16A401A00903820205C40070ED43E
:10067000009800280BDD05462021A068B047A06047
:1006800000285DD0E06A401CE0626D1EF4D13A00A3
:1006900063692100300000F0E9FC002850D1256A90
:1006A000002D0ADD3021A068B047A060002847D0A7
:1006B000E06A401CE0626D1EF4D1A369E26821008B
:1006C000300000F0D3FC00283AD1656A002D0ADD25
:1006D0003021A068B047A060002831D0E06A401CFB
:1006E000E0626D1EF4D1E369E068A169421821005F
:1006F000300000F0BBFC002822D1A56A002D0ADDE5
:100700003021A068B047A060002819D0E06A401CE2
:10071000E0626D1EF4D13820205C40070ED50098B1
:1007200000280BDD05462021A068B047A060002806
:1007300006D0E06A401CE0626D1EF4D10020F2BDDC
:100740000020C043F2BD0000F0B5A7B004000D00CA
:1007500016002F6B002F00D5874F00F06CFD696BE2
:100760000A1800BF29A003C804AB03C3812A4AD2D8
:1007700000200694009503900024002F32DD04AA87
:10078000316801A800F005FD05003CD43068002860
:1007900001D16D1E37D4AF4224DB00984069401967
:1007A00081280BD30098446307AA00990698FFF7A5
:1007B00049FF0390002815D40098446100984069CF
:1007C00002902A0001A907A8029BC01800F052FD60
:1007D00002984019009948613068002802D0361DFF
:1007E0007F1BCAE7069B009C0398002804D107AA38
:1007F00021001800FFF726FF002802D100216161C7
:10080000616327B0F0BD0020C043FAE7000000009C
:1008100000000000F2B586B0040025696F2901D1FF
:10082000082707E0084620210143782901D00A273C
:1008300000E010273C2603CC083C04AA03C26A4609
:10084000127E642A03D06A46127E692A09D10029E1
:1008500007DA04A803C800220023121A8B4104A857
:100860000CC004A803C8002920D100281ED1206B89
:1008700000281BD1082F4ED13820205C00074AD514
:100880003B26302046E000290ED53821615C142239
:100890000A40102A08D1616B6269891A226A891A92
:1008A000081A002800DD206207B0F0BD0294009510
:1008B00004A830C8761E0196200029003A00FB17D4
:1008C00000F0E5FC3032D0B23A2803DB6846007E07
:1008D0005138121800988255200029003A00FB1761
:1008E00000F0D5FC04000D0001D1002C05D00298C9
:1008F000C068009989198842DCD3029C009D082FAA
:1009000009D13820205C000705D5A85D302802D029
:10091000761E3020A8553C20801BA061A919E160FB
:10092000216B8842AFDA081A2062208F13490140F8
:100930002187B9E7F8B50026114F04000D00009299
:1009400014E0C00707D532003B002000290000F06A
:10095000D3FC04000D0000984010009030003900D6
:1009600032003B0000F0C8FC06000F000098002891
:10097000E7D120002900F4BDFFFFFF7FEFFF00005B
:1009800000002440F3B593B005AA03C802AB03C32B
:1009900014A80078202101436846017061290BD01A
:1009A0001398006B002801D5062003E004D16729C5
:1009B00002D1012013990863139803C84C006415F1
:1009C000641C13D10B0311D003201399886114A860
:1009D000007861381A2804D255497944FF315331DF
:1009E00016E054497944FF314D3111E04C00641553
:1009F000641C13D10B0311D103201399886114A82F
:100A0000007861381A281BD34B497944FF312B31C8
:100A100003221398C06800F02DFCC2E110AB03C3A1
:100A20008CA6C0CE10A803C8394080256D03A9420A
:100A30000BD20023019310AB30CB604069400EE035
:100A40003E497944FF310939E2E7080D834C241807
:100A5000019410A803C8834D0D4081492943139B7D
:100A600003C368460078612813D11398C068302109
:100A70000170811C139BD96014A90978612901D1E7
:100A8000782100E05821417013984069801C139927
:100A90004861139830C826402F4005D1002E03D15D
:100AA00000206B46188173E168460078612800D009
:100AB000A8E01398006B002801D5212000E0401C1D
:100AC0000090009F7F1C02A803C80022002300F0B2
:100AD000D5FC02D28020000645400198001F0190FD
:100AE00069460A7505A8461C002F00DC5FE120005E
:100AF0002900002280235B0300F0D9FC00D956E1D5
:100B000069004A0D11001C31002A19D0002917DD97
:100B1000B24A914206DB10052900802212061140DC
:100B2000014311E04F4A2A400805104305000DE03B
:100B30005C2900005C2900006029000058290000A1
:100B4000290080221206114000240D0020002900F7
:100B500000F0C6FC0290FF1F002F09DD00F0FAFC38
:100B600002000B002000290000F05BFD04000D00D6
:100B7000F01D0721029A04E0401E13071B0F0370AB
:100B80001211002A01DD491EF6D5491E00D50AE1E1
:100B9000401E00220270F8E70023040005AD2D1965
:100BA00001E0401E6D1E641E2E789E42F9D00F2B70
:100BB00004D14B1C1B5D5B1C491C0B55002C04D540
:100BC00005AA401C0199091D0191431E11D4D41896
:100BD00014A9097825783035EEB23A2E02DB0E00E2
:100BE0003A3EAD1925705B1E641E002BF2D514AB86
:100BF00019701399096B002900D4C6E0411E139B9C
:100C00001963C2E002A830C86D006D0801987449EC
:100C10004843744900F07CFD019007200199401A77
:100C2000029005DD024620002900FFF783FE0AE05E
:100C3000424200206C49FFF77DFE02000B002000BD
:100C4000290000F094FD6A461278662A0CD1019AB8
:100C50000A320AE0FFFFFFFFFFFFFF7F02FCFFFFFA
:100C60000000E03FFFFF0F800622139B1B6B9A18CA
:100C7000142A00DD142230236C46237505AB5C1C5E
:100C800002E002A803C8049A002A3CDD02AB03C3B9
:100C9000049202A803C800F035FC0F900646083401
:100CA000042530000A2100F047FD0F0030000A2122
:100CB00000F042FD06003037601E077030000A2148
:100CC00000F03AFD0F0030000A2100F035FD06006B
:100CD000A41E303727706D1EE3D1083404980838FD
:100CE00004900028CDDD0F9800F024FC02000B00DA
:100CF00002A803C800F095FC00223C4B00F0FCFA6F
:100D000002AA03C2C5E705A8401C211A05A8421C77
:100D1000019802E0491E401E521C1378302BF9D076
:100D2000019068460078662802D10198401C06E0D0
:100D300068460078652801D1012000E00020139B5F
:100D40001B6B1818814200DA481E00281DD4884207
:100D500004DA115C352901DB392300E0302304007B
:100D6000511E0D1901E0401E6D1E641E2E789E421C
:100D7000F9D0392B02D1135D5B1C1355002C04D51F
:100D80000A00401C0199491C01916946088101989B
:100D900000B20090029B1BB214A80178139800F0D7
:100DA00027F815B0F0BDC61D002F00DD9FE605A990
:100DB000481C331A05A8421C0098834200DC180026
:100DC000002800D515E7984200DBE5E64B1C1B5CCC
:100DD000072B00DCE0E60F23DFE60000FF07000042
:100DE00097750000A08601000000F03F84D797416E
:100DF000F6B583B006000F001C0000F0CFF9406A82
:100E0000007869460870356B002C03DC012400BFB4
:100E1000A3A0049020203843662803D10A9F3FB244
:100E20007F1C1AE0672800D085E00A9800B20321F1
:100E3000C943884200DA82E0A84200DB7FE00A9FD3
:100E40003FB27F1C3820305C000702D4AC4200DA8D
:100E5000250038B22D1A00D50025B169F068401878
:100E60003AB2002A26DC491C30220270002D03DC35
:100E70003820305C000704D568460078F26850548A
:100E8000491CB16138B241428D4200DA6F423FB233
:100E900078427062ED19A54200DA2C0024B2F461A8
:100EA00022000499F068B369C01800F0E3F9281B28
:100EB000B062C3E0944218DA2200049900F0DAF933
:100EC000B0690019B0613FB2391B7162002D03DCBB
:100ED0003821715C090706D569460978F268115412
:100EE000F069401CF061B562A8E0049900F0C2F915
:100EF00038B2B1690918E41B002D03DC3822B25C5A
:100F0000120704D56A461278F3685A54491CB16135
:100F100021B28D4200DA2C0022B204990918F0683F
:100F2000B369C01800F0A6F924B2B0690019B06125
:100F3000281B706282E0612F11D1702712E0AC4251
:100F400004DA3821715C090700D425006D1E00D534
:100F50000025672F01D1652704E0452702E0412FD6
:100F600000D15027B069411CB161049A1278F3682E
:100F70001A540498401C0490002D03DC3820305C87
:100F8000000718D5481CB0616A461278F3685A54B5
:100F9000002D10DD641E21B28D4200DA2C0022B239
:100FA0000499F368181800F065F924B2B0690019C3
:100FB000B061281B7062F068B169401807700A9927
:100FC00009B2002904D42B214170801C049006E052
:100FD0002D224270801C04904842694608850024F6
:100FE0006D460A9800B205E00A2100F091FB2970D5
:100FF000641C6D1C00B20028F6DC012C09DC2020EA
:101000003843652805D13020049908700498401CA5
:101010000490002C28D13020049908700498401CBA
:1010200007E0641E6946095D30310170401C002CE8
:10103000F7DCF168B2698918401AF0613820305C39
:101040001421014010290DD17069B1694018716AED
:101050004018F1694018B16A4018716B884201DA92
:10106000081A306205B0F0BD0498E0E7F8B5002436
:10107000002B13D007000E0014001D002178B0686B
:10108000B847B060002807D0F06A401CF062641CCA
:101090006D1EF3D1002401E00024E4432000F2BDE2
:1010A0003000F1B4016842184168480813180098EC
:1010B0008068C9071ED5494640181BE01778521CA6
:1010C0000770401C761EF9D1002C13D01678521CE4
:1010D00089080D40032D01D11578521C2902711881
:1010E0004D424119A41C05D00D78491C0570401CC7
:1010F000641EF9D19A420FD01178521C03250326A1
:101100000E4002D11678F61C521C0C090F2CD9D1B6
:1011100014780F34521CD5E700980C30F2BC70479D
:101120002048704730B45368D418042B0BDA0029D8
:1011300009D0057825700578002D04D05B1C491E68
:10114000641C401CF1E7536030BC704738B500297F
:101150000ED01D001400FFF7E5FF616820006A6BE8
:1011600090470122D243811A02D0491E02D004E0E6
:10117000012000E00020C04332BD0021616032BD8B
:1011800080B5DA6B904702BD80B5064BFFF7DEFFF6
:1011900002BD80B5034BFFF7F3FF02BD0248704765
:1011A00000000000C000002088000020C9B20278C2
:1011B0008A4203D0401C002AF9D1002070470268FF
:1011C000531C03601170704780B5002801D100BF27
:1011D00007A006490B68002B03D022220021984764
:1011E00001E000F025FB222002BD0000A801002044
:1011F000636F6E73747261696E742068616E646C83
:1012000065723A20626164206D6573736167650081
:10121000431C0178401C0942FBD1C01A7047FEE70D
:10122000C9B2521E05D30378401C8B42F9D1401E2F
:1012300070470020704780B5FFF772FF006C02BD59
:1012400070B4103A03D378C9103A78C0FBD2530770
:1012500001D318C918C001D508C908C0D20704D3E2
:101260000B880380891C801C002A01D50B78037031
:1012700070BC70478B0701D18307E1D0124205D0C3
:101280000B78491C0370401C521EF9D17047124262
:1012900024D0994228D970B500251B4202D00C00F9
:1012A000002109E00024012649186441944200D33A
:1012B000A41A7641F8D33100012601E0764109D223
:1012C000001864416D41A41A9D41F7D2A4185D41F4
:1012D000B619F5D3300022002B0070BD1B42D8D1C7
:1012E00008B500F0ABFA08BD01D19042D3D202009C
:1012F0000B00002100207047F0B50E005E40012574
:10130000ED072E40B446AE0ADF184C18F44208D25E
:10131000F7420ED2640D01D07F0D12D1002061463C
:10132000F0BD05D1F74201D87F0D05D10020C143A2
:10133000F0BDFBD1640DF9D00020C1434905490837
:101340008FE0E419C902DB0229432B43DB0A460D77
:10135000C00231438E4630B487B295B27D432E0C25
:10136000ADB2140C7C43A419260C240425439CB272
:101370007C43A419190C7943270CC919A4B20F0492
:101380003C43090C000C97B247432E0CBE19354361
:10139000ADB2170C4743360CBF19A6B2BF193E04B5
:1013A0003543240C3E0C36199FB24743BF19BCB2DB
:1013B0003E0C89191F0C47437F183E043443390CF7
:1013C000704680B297B247432E0CBE193543ADB27A
:1013D000170C4743360CBF19A6B2BF193E0435435C
:1013E000240C3E0C36199FB24743BF19BCB23E0CC9
:1013F00089191F0C47437F183E043443390C774644
:101400003F0C90B278432E0C80190604ADB22E43E7
:10141000050CA0B22D18120C7A435019020C80B2A0
:10142000240CA4189AB27A43121914042043120C03
:1014300089181B0C7B43C91830BCEF0A394203D111
:10144000B61940414941641E6F12BF0DE41B0BDB0E
:10145000FF19BC4211DA240500274208AE41784149
:10146000614166463143F0BD641C05D1401C6141B9
:10147000CF0201D34908F4E750E75DE730B4012417
:1014800064054D00EC420BD85D00EC4208D80C001E
:101490001C4364000443144304D2994200D1904297
:1014A00030BC7047FCD08B42FAD18242F8E730B4AE
:1014B000012464054D00EC420BD85D00EC4208D8D5
:1014C0000C001C4364000443144304D28B4200D13B
:1014D000824230BC7047FCD09942FAD19042F8E782
:1014E000F4464A1805D200F00FF801D580174008DD
:1014F000604700F009F80121C907884200D90800B7
:10150000404260474A1812D2400DC90208430121E7
:10151000C9070843520D40210901521A521C06D432
:1015200052421F3201D4D0407047C017704700208C
:101530007047FEE7010042221201D21E004207D08E
:1015400002D4521E0018FCD5C10A400512058918A4
:10155000704700000100EED54042F446FFF7EBFF74
:101560000122D207114360478B4200D1824205D944
:101570008446100062468C4619006346DF184C18FA
:10158000640D7F0D3AD0661C760537D0E61B352EEC
:1015900034DCDB022B43DB0A0C0DC9022943C912E0
:1015A000202E0DDB1700203E06D01F00F741F34030
:1015B0005F400026012A7741C01871410DD217E023
:1015C0001700F741F2405740F3415A40B340F3400F
:1015D0005A400026801859410AD3A21C52050FD048
:1015E000C207012F724117004008CB071843490872
:1015F000641C24054208AF4170416141F0BC704752
:10160000641C21050020F9E76B4010E06B40ABE75C
:10161000F742F3D1E943F1E72442EFD10020002162
:10162000ECE7F0B40125ED070F005F40EED40C00AD
:10163000871A9C4105D2C01BA141D2196341694060
:101640006B40AE0ADF184C18F442E1D2640D7F0DF6
:10165000E2D0E61B362ED1DCDB022B43DB0AA446AC
:101660000C0DC9022943C90A012E28DC04D1D60772
:101670005208DF073A435B08EF0A764290419941EE
:1016800014D039423BD1B61940414941761C394208
:1016900004D1761C001849413942FAD0B943674653
:1016A000B74208D9A41B24052143A7E70042EAD189
:1016B0003642E8D1A2E7E40AE10700209EE7202EA7
:1016C0000BDD203E1F00F340F7415F40012A00225E
:1016D00057417E42984191410BE01700F741F2409B
:1016E0005740F3415A40B340F3405A407E42904144
:1016F00099410A0303D2641EB619404149410027AB
:10170000641E24054208AE4178416141F0BC704737
:10171000CA0F00D0494203105A400DD004B500D37F
:10172000404200F009F8009AD20701D34942124220
:1017300000D5404204BD0000094214D088420FD3B6
:101740000122030C01D100041204002300185B41A4
:101750008B4200D35B1A5241F8D319001000704736
:1017600001000020704708B500F06AF808BDF0B429
:101770000E005E400125ED072E40B446AE0ADF188C
:101780004C18F4423BD2F74241D2640D43D07F0D56
:1017900038D0E41BC902DB0229432B43CF0ADB0A02
:1017A0000600B61A9F4104D2641EB6197F41B618CE
:1017B0005F416812800D24180018844222DAE80C78
:1017C0000021B6197F41B61A9F4102D2B6185F4177
:1017D0003F1C40414941F4D3241C21DD2405B619A6
:1017E0007F41B61A9F4105D33743C60737430026CA
:1017F000012F7041614166463143F0BC7047FCD116
:10180000F74205D20020C14349054908F3E704D057
:101810000020C143F1E77F0DFAD000206146ECE7DC
:101820002442FAD1401C61410F03F6D30020E2E7C5
:1018300080B5012000F006F801BDFEE77047FEE725
:101840007047FEE780B500BF00BF024A11001820B4
:10185000ABBEFBE726000200F8B5002700268A4D44
:101860009024E4050EE0002E0CD0022E11D002D3FD
:10187000032E15D01BE001220221200000F053FDB1
:10188000022013E001220121204600F04CFD01203E
:101890000CE001220421200000F045FD032005E0BA
:1018A00001220821200000F03EFD00982860202140
:1018B000200000F032FD012819D04021200000F066
:1018C0002CFD012801D1022011E080218901200096
:1018D00000F023FD012801D1032008E0042000903E
:1018E0000103200000F019FD012802D10098686072
:1018F00016E000220121200000F015FD0022022147
:10190000200000F010FD00220421200000F00BFD5B
:1019100000220821200000F006FD761C042EA2DB28
:1019200000220121200000F0FEFC00220221200004
:1019300000F0F9FC00220421200000F0F4FC002259
:101940000821200000F0EFFC68682968012902D115
:10195000012808D10BE0022912D1012812D12F60F1
:101960006F600420F2BD022801D0032802D12F604D
:101970006F60F2BD042803D12F606F600A20F2BDB2
:10198000022905D102280BD12F606F600520F2BD1E
:10199000032911D1012811D12F606F600720F2BDFA
:1019A000032803D12F606F600620F2BD042803D105
:1019B0002F606F600B20F2BD032905D102280BD1E7
:1019C0002F606F600820F2BD042911D1012811D1C8
:1019D0002F606F600E20F2BD032803D12F606F606F
:1019E0000920F2BD042803D12F606F600C20F2BDE6
:1019F000042911D1022803D12F606F600020F2BDAD
:101A0000032803D12F606F600F20F2BD042803D19B
:101A10002F606F600D20F2BD2F606F60FF20F2BD60
:101A2000F8B50600012000F091FC00BF17A000F0FF
:101A3000C1FC0024A4A7A54D12E00A214C432418A0
:101A4000012000F083FC380000F0B4FC2200D2A199
:101A50002800703000F0B8FC2800703000F0AAFCBC
:101A6000FA2000F0D1FCFFF7F7FEFF28F8D0FFF7CF
:101A7000F3FEE8650A28E0DB0C2803D00D28EFD13F
:101A80002000F2BD3000F2BD9C010020656E74653F
:101A9000725F6E756D000000FEB500F0C5FC00F0D1
:101AA000DFF800F015F9BD4EBD483060BD487060EC
:101AB0000020B0600120F060002030617061B061F2
:101AC000F0613062300000F0BFFC0021300000F017
:101AD00095FE0021300000F0AEFEB348F064B3483C
:101AE000306500207065FA208000B0650020F06548
:101AF000706630004C3000F0C7FE9024E4050022F0
:101B00000121200000F00FFC00220221200000F043
:101B10000AFC00220421200000F005FC002208211C
:101B2000200000F000FC30004C3000F0BCFE300023
:101B30004C3000F0C4FEC82000F066FC9C4D012231
:101B40000121280000F0EFFBC82000F05DFC01221D
:101B50000221280000F0E7FBC82000F055FC01221C
:101B60008021200000F0DFFBC82000F04DFC0122A6
:101B70000221904800F0D7FB00F00EFCFA20400054
:101B800000F042FC8CA0019083A7504D59E0411E0B
:101B9000042906D200F014F903E00E28F7D100F072
:101BA00095FA012000F0D2FB30008C3000900068E4
:101BB000062843DB00240098046000F0FDF90120B2
:101BC00000F0C4FB40A000F0F5FB2A5D39002800BE
:101BD000703000F0F9FB2800703000F0EBFB01984A
:101BE00000F0E8FB641C042CEFDBC02000F0AEFB2F
:101BF00069A76A6D39002800703000F0E5FB280005
:101C0000703000F0D7FB6DA000F0D4FBAA6D390056
:101C10002800703000F0D8FB2800703000F0CAFBBC
:101C200066A000F0C7FB00984268390028007030B9
:101C300000F0CAFB2800703000F0BCFB642000F00C
:101C4000E3FBFFF709FEFF28AED0FFF705FEE865CE
:101C50000A2801D00B28A0D1012000F077FBA0E7D3
:101C600038B594B008A8302100F028FF684610214C
:101C700000F024FF04A8102100F020FF0A200890A3
:101C800001200B9010210C910F900224109400253C
:101C90001195A02080031290139508A800F016FF5C
:101CA000072000900194029503950121684601F0F8
:101CB000E7F89B4804900795C009059004A801F037
:101CC000BFF915B030BD000020202000000000202A
:101CD000F8B586B06846142100F0F0FE8021C903F3
:101CE000904802680A430260026811400591059914
:101CF0008021890202680A4302600268114005914E
:101D000005998021C90202680A4302600068014007
:101D100005910598264E00220321300000F003FBB8
:101D20009027FF0500229F21380000F0FCFA0022D6
:101D30000221204800F0F7FA0320009001240194CA
:101D40000025029503956946300000F027FA0F2020
:101D5000009001940226029603956946380000F02F
:101D60001DFA902000900194029503956946380071
:101D700000F014FA6C48009001950296694638000C
:101D800000F00CFA00960194029503956946094803
:101D900000F004FA07B0F0BD25640000080100203F
:101DA000005400400E090020002000407FBB0000CE
:101DB00000140048000400487C0000003A000000C5
:101DC000F8B50024401E594E14214843351858A731
:101DD00000E00224FA2000F017FBFFF73DFDF0655C
:101DE000012000F0B3FA002C10D100BF51A000F088
:101DF000E1FAC02000F0AAFA6868002802D100BF0A
:101E000050A041E0012841D152A03DE0012C0FD16A
:101E10006868002802D100BF51A002E0012802D169
:101E200054A000F0C7FAC02000F090FAAA6824E09D
:101E3000022C0FD16868002802D100BF50A002E038
:101E4000012802D153A000F0B5FAC02000F07EFABC
:101E5000EA6812E0032C07D151A000F0ABFAC020D1
:101E600000F074FA2A6908E0042C0FD14FA000F0AA
:101E7000A1FAC02000F06AFA6A69390030007030B7
:101E800000F0A2FA3000703000F094FAF06DFF28F4
:101E9000A0D00A2808D1641E9CD56868002898D074
:101EA000012897D1042495E70B280CD1641C68689D
:101EB000002803D1032C00DB00248BE70128FCD190
:101EC000042CFADDF8E70C2809D00D2806D1002CE7
:101ED0000AD16868002803D1012068607AE7F1BD63
:101EE0000128FBD10020F8E7012C04D1A868FFF7F6
:101EF00097FDA8606EE7022C04D1E868FFF790FD1B
:101F0000E86067E7032C04D12869FFF789FD2861A1
:101F100060E7042CFCD16869FFF782FD686159E72E
:101F2000200001001410024060600000000000204A
:101F30002564000020202072656C65206D6F64654B
:101F4000000000006D696E7574652074696D6572BE
:101F5000000000006461696C792074696D6572002D
:101F60002020206D696E7574652072616E67652032
:101F700031000000202020686F75722031000000C1
:101F80002020206D696E7574652072616E67652012
:101F9000320000002020206D696E757465203100CC
:101FA000202020686F757220320000002020206DF4
:101FB000696E757465203200F8B56E4C606D3C2119
:101FC0004843A16D421800230121142058432018D2
:101FD0004568002D1ED1250060359E00AD192E6884
:101FE000002E00D12A602E68961B002E01DC624F65
:101FF000F619E75C002F04D1806886421ED1E154B7
:1020000006E0012F1AD1C068864217D10020E054A3
:102010002A6013E0012D11D185683C267543C668FE
:10202000AD19954208DA05693C26754340692818C0
:10203000824201DAE15401E00020E0545B1C042BF1
:10204000C3DB4E4D2078002803D10122280000F088
:102050006AF92078012804D100220121280000F02B
:1020600062F96078002804D101220221280000F0E2
:102070005AF96078012804D100220221280000F0DA
:1020800052F99025ED05A078002804D10122802185
:10209000280000F048F9A078012804D1002280210E
:1020A000280000F040F9364DE078002804D10122E4
:1020B0000221280000F037F9E078012804D100223D
:1020C0000221280000F02FF9F1BD000070B50024B6
:1020D0002CA6284D02E0641E00D50124FA2000F051
:1020E00093F9FFF7B9FBE865012000F02FF9002C08
:1020F00008D100BF24A000F05DF9C02000F026F94F
:102100006A6D08E0012C0FD121A000F053F9C02026
:1021100000F01CF9AA6D31002800703000F054F96D
:102120002800703000F046F9E86DFF28D6D00A2864
:10213000D1D00B2804D1641C012CCFDD0024CDE7C5
:102140000C2807D128006030002100220023002441
:102150001EC070BD0D28C1D1002C04D1686DFFF7E1
:102160005FFC6865BAE7012CB8D1A86DFFF758FC91
:10217000A865B3E7000000209F0500000014004898
:102180000004004825640000202020686F7572005C
:102190002020206D696E757465000000FFB50A008F
:1021A0000023010031E0052403E0624CA142FAD192
:1021B0000324AC403443029804605F480568019EE4
:1021C000F44325405668F60302D52E00019D3543A1
:1021D0000560456825405668B60302D52E00019D6E
:1021E00035434560856825405668F60202D52E00C5
:1021F000019D35438560C5682C405568AD0202D508
:102200002500019C2C43C4605B1C10680400DC406A
:1022100000D181E0012401259D40039505400195F1
:1022200001980028F0D098006D4668705068022828
:1022300001D0122811D1D80880000D18286A6E46E6
:1022400077781C263E400F27B740B8431769BC4635
:1022500037006646BE4006432E620D6858006E4643
:102260003070032037780326BE40F74302973E467E
:102270002E40556805406F463F78BD4035430D60A0
:102280005568012D05D0022D03D0112D01D0122D3E
:1022900011D18E68029D3540D6686F463F78BE40AA
:1022A0002E438E604D68039EB5435668360926401E
:1022B0009E402E434E60CE68029D354096686F4624
:1022C0003F78BE402E43CE605568ED009CD51B4D37
:1022D0002D682543194E3560356825400295029DCD
:1022E000174D9E08B600AD1902952E686D466F78A1
:1022F0000C253D400F27AF40BE439027FF05B94254
:1023000001D1002455E70F4FB942FBD00E4CA1423A
:1023100000D04AE702244CE7FFBD0069084000D026
:102320000120C0B27047002A01D0816170478162EC
:1023300070470000000C00480004014018100240E3
:102340000800014000040048000800481CB5F021C6
:10235000014000010C2201AB0C0014431C70082446
:1023600009E01CB5F021014000010D2201AB0C0079
:1023700014431C7009242143597002439A7004438A
:10238000DC7064200090042301AA4E21014800F073
:10239000AFF813BD0801002080B50220FFF7D6FF7B
:1023A0002820FFF7D3FF0C20FFF7D0FF8020FFF796
:1023B000CDFF01BD10B5040002E0FFF7D2FF641CA1
:1023C00020780028F9D110BD0CB418B583B00400F2
:1023D0000A0006A8029001940020009002AB01A917
:1023E000084878441E30FDF763FE0021019A117001
:1023F000002801D40198001B04B0019910BC03B05F
:10240000084700BFBBEDFFFF31B500F097FE0400A9
:10241000009D0020C043854200D06D1C00F08EFE60
:10242000001BA842FAD331BD80B5064801681022CE
:102430000A430260002000F087FE00F097FE0020B3
:1024400002BD00000020024070B5040001D101204F
:1024500070BD2500403500266878002803D12E7015
:10246000200000F098FE2420687020680168012296
:102470009143016060686A490140206801612168F8
:1024800070488A6802408A60E1680129A16801D128
:10249000C24301E0842212020A4321688A60E16893
:1024A000022903D1802109012268516021684A680C
:1024B000654B13434B602168CA681040C8602069AF
:1024C00061690143A069000208432168C860E069AE
:1024D000216A0143206801602068016801220A43E3
:1024E00002606E60202068702663AE70002070BDB0
:1024F000FEB504000F0016001D0040304078202873
:102500007DD14020205C012879D0012040216054F9
:1025100000F014FE0190009019230122D103200045
:1025200000F0A6F8002867D1212021004031487032
:102530001020210040318870002021004031486087
:1025400066626585606380208001089E618DFF2939
:102550000AD9FF2121850090C302FF223900200003
:1025600000F038F9019D10E0628D22850090030390
:10257000D2B2F3E7FF2020850020009080235B0487
:10258000FF223900200000F025F9608D002838D0A6
:102590002A003100200000F096F8002806D00094B0
:1025A000204640304068042826D136E0606A411C4D
:1025B00061620078216888622448618D091861850C
:1025C000218D081820850004DFD1608D0028DCD023
:1025D0000095330000228021200000F049F80028F7
:1025E0000AD1608DFF28C5D8628D22850020009019
:1025F00080239B04D2B2C4E70320FEBD12E0022078
:10260000FEBD31002A00200000F087F80028F5D038
:102610002000403040680428EED10120FEBD0000BB
:10262000FFFFFFF020202168C86121684A68084B3D
:1026300013404B60210040314870002088700870C2
:10264000FEBD0000FF7FFFFF00800002FFFF0000D3
:1026500000E800FE00688169890701D500218162D8
:10266000012182690A4002D1826911438161704768
:10267000F8B51E00069B002405000F006846027096
:102680000693286880693840B84201D1012000E0F3
:10269000002069460978884213D10020C043864251
:1026A000EFD0002E05D000F049FD0699401A864271
:1026B000E7D228004030202141708470047003204C
:1026C000F2BD0020F2BD70B504000D0016002068B8
:1026D000806980071FD432002900200000F03FF8F5
:1026E000002801D0012070BD0020C0438542EED0FB
:1026F000002D04D000F022FD801B8542E7D220008F
:102700004030202142680A434260417000218170BC
:102710000170032070BD002070BDF8B520250400B5
:102720000E00170020688069284016D13A00310059
:10273000200000F014F800280DD1002E04D000F085
:10274000FDFCC01B8642EDD2200040304168294389
:102750004160457039E00120F2BD0020F2BDF8B5BE
:10276000102403689B69234017D005000F000092D6
:10277000202628688169314011D10020C04387425A
:10278000F7D0002F05D000F0D9FC0099401A8742FD
:10279000EFD228004030467017E00020F2BDC4613F
:1027A0002868C6612800FFF755FF28684168114A6C
:1027B0000A404260280040300421416046700021F8
:1027C000817001700120F2BD000000218170017054
:1027D0000320F2BD70B5049C00684568064E2E408B
:1027E0008905890D314312040A4313431C43446095
:1027F00070BD000000E800FE009800FC70B502000B
:1028000040325378202B14D14023C35C012B10D0CD
:102810000123137024245470046825689D432560A7
:1028200004682568164E2E402660046825682943F2
:102830001CE0022070BD70B5020040325378202B9E
:1028400012D14023C35C012B0ED00123137024242A
:102850005470046825689D43256004682568094E06
:102860002E400902314301E0022070BD2160006862
:1028700001680B430360202050700020107070BD71
:10288000FFEFFFFFFFF0FFFF10B5040001D10120B3
:1028900010BD3D20205C002804D13C216054200064
:1028A00000F0A9FC15E002213D22815401680122BB
:1028B0000B6813430B603D214254002070470068B1
:1028C0000121C2680A43C26002681143016000200E
:1028D000704702203D216054211D206800F0AEF8B1
:1028E00001203D216054002010BDF8B5040020688F
:1028F000002502260169314015D0C168314012D04F
:102900000221C9430161012121778069800703D039
:10291000200000F093FC05E0200000F090FC200077
:1029200000F08EFC2577206804270169394016D015
:10293000C168394013D00421C943016126778069F9
:10294000C0218900014003D0200000F077FC05E0A1
:10295000200000F074FC200000F072FC2577206855
:1029600008260169314014D0C168314011D00821D6
:10297000C94301612777C069800703D0200000F0B8
:102980005DFC05E0200000F05AFC200000F058FC3F
:1029900025772068102102690A4016D0C2681140CC
:1029A00013D01021C94301612677C069C021890075
:1029B000014003D0200000F041FC05E0200000F0C1
:1029C0003EFC200000F03CFC2577206801210269D4
:1029D0000A4008D0C268114005D00121C9430161F5
:1029E000200000F02EFC2068802102690A4008D0F7
:1029F000C268114005D08021C9430161200000F068
:102A000021FC2068402102690A4008D0C2681140B8
:102A100005D04021C9430161200000F014FC20686A
:102A2000202102690A4008D0C268114005D0202147
:102A3000C9430161200000F007FCF1BDF0B5066854
:102A4000184A194B194C1A4DA84201D0A04206D180
:102A50007027BE4337004E683E43A84208D0A042CC
:102A600006D0144CA04203D0984201D0904203D12A
:102A7000114C3440CE6826438024A6434C6934432D
:102A800004608C68C4620C688462A84203D09842D7
:102A900001D0904201D10969016301214161F0BD7A
:102AA00000000000004801400044014000040040D4
:102AB000002C014000200040FFFCFFFF002200BF6F
:102AC000094202D0491E4254FCD17047F1B582B090
:102AD000B14C0078C00700D4FEE08025AD026068EC
:102AE0000C210140042907D060680C21014008290D
:102AF0000BD16068C00308D52068054038D0029823
:102B00004068002826D10120FEBD029841680129B5
:102B100002D1206869080BE0A048A14A00290AD028
:102B2000052908D120686900014321602068D1434C
:102B30000143216005E021680A40226021680840C5
:102B400020600298406800280DD000F0F7FA0600D7
:102B50002068284000D0BFE000F0F0FA801B652814
:102B6000F6D30320FEBD00F0E9FA060020682840F5
:102B700000D1B1E000F0E2FA801B6528F6D3F0E75F
:102B800000F0DCFA801B022800D8D6E0E9E70298C2
:102B9000C068002820680FD001210143216000F0A7
:102BA000CDFA06002068800700D5AEE000F0C6FA36
:102BB000801B0228F6D9D4E701218843206000F069
:102BC000BDFA06002068800700D4A6E000F0B6FA3F
:102BD000801B0228F6D9C4E701218843606200F017
:102BE000ADFA0600606A800700D4AAE000F0A6FAF9
:102BF000801B0228F6D9B4E70420C0430122D24347
:102C000000290AD0052908D1206A04210143216244
:102C1000206A01210143216205E0216A0A40226203
:102C2000216A08402062954F0298806800280CD0E5
:102C300000F084FA0600206A800700D5B9E000F0B1
:102C40007DFA801BB842F6D38BE700F077FA0600D6
:102C5000206A800700D4ACE000F070FA801BB84214
:102C6000F6D37EE700F06AFA801B022800D8BDE0A8
:102C700077E700F063FA801B022800D8D6E070E7FF
:102C80000421C9438842606B03D1042188436063F7
:102C9000B0E0042101436163606B012188436063FC
:102CA00000F04CFA0600606B800700D4A9E000F049
:102CB00045FA801B0228F6D953E70140216000F055
:102CC0003DFA06002068800100D4D4E000F036FA16
:102CD000801B0228F6D944E70C250298007880076B
:102CE0001BD56068284008D060682840082800D0BC
:102CF0004DE76068C00300D549E72068800704D528
:102D00000298C068012800D0FDE62068F8218843B9
:102D100002990969C90001432160029800780007FF
:102D20000FD50298C0690028606A00D154E70121DC
:102D30000143616200F002FA0600606A800700D475
:102D40001EE70298007840073AD5002000908020C6
:102D50004005E169014008D1E1690143E161E169B0
:102D60000840009000980120009090480068C0053D
:102D700018D48E480068A10D01438C48016000F012
:102D8000DDF9060089480068C0050BD400F0D6F9CB
:102D9000801B6528F6D3E4E600100240FFFFFBFF2E
:102DA000FFFFFEFF02988168012900D024E7206A16
:102DB00030E70098002803D0E0698D490140E161C7
:102DC00002980078C0061CD502984069F827FF4396
:102DD000012800D054E7606B042101436163606BFC
:102DE00001210143616300F0A9F90600606B8007CF
:102DF00000D437E7606B074002988069C000384311
:102E000060630298006A002835D061680D40082D83
:102E100000D178E677490228206800D04DE70140CC
:102E2000216000F08BF906008025AD042068284061
:102E300000D01EE7E06A0F2188430299C96A014366
:102E4000E16260686C4901400298806A0843029917
:102E5000496A01436160206869080143216000F00C
:102E60006DF906002068284005D100F067F9801B45
:102E70000228F7D975E60020FEBD00008913000086
:102E8000F3B581B00127FF4301245C490968214063
:102E9000029A91420AD259490A683A40029B134366
:102EA0000B6009682140029A914272D10090544D02
:102EB000022000990968014006D06968F022914318
:102EC000009A92680A436A6000990968214050D0CC
:102ED00000994968012902D12868800303E002298A
:102EE00003D12868800103D453E02A68104050D0F1
:102EF0006868032290430143696000F01FF90600EF
:102F00000098406801280CD168680C210140042910
:102F10002FD000F013F9801B3A498842F4D30320E4
:102F2000FEBD022837D168680C210140082920D055
:102F300000F004F9801B33498842F4D3EFE700988E
:102F40000078400706D568682F4901400098C0689E
:102F50000843686000F02CF82C496A681206120FCA
:102F6000895CC8402A490860002000F0EDF8002084
:102F7000FEBD22480299026822409142DFD20168D8
:102F80000F4002993943016000680440029884426E
:102F9000D5D00120FEBD68680C210140E9D000F0C9
:102FA000CDF8801B17498842F5D3B8E70070004080
:102FB000184B196818480C220A40082A00D070479C
:102FC00030B50F2216A48D0C1540645D9B6AC903B1
:102FD00007D500BF16A11A40895CFEF7ADFB604320
:102FE00030BD20000D49484330BD09480068704796
:102FF000FFFFFFEFFFFFFFFEFFFFC2FF00200240C9
:103000000010024089130000FFF8FFFF343300086E
:10301000840000200410024000127A0000093D00E4
:1030200002030405060708090A0B0C0D0E0F101009
:103030000102030405060708090A0B0C0D0E0F1008
:10304000F8B50700374C3868C00357D5002000900A
:10305000802040052168014008D12168014321609A
:103060002168084000900098012000902E4E3068A2
:10307000C00517D43068A10D0143316000F05EF83F
:1030800005003068C0050DD400F058F8401B6528D5
:10309000F7D30320F2BD00F051F8401B23498842CA
:1030A0001DD3F6E7C020800061680140204A160069
:1030B000002917D07A681040814213D060683040F0
:1030C0006168802252020A4362606168194A0A40BC
:1030D00062606060C00705D500F030F805006068E8
:1030E0008007D8D5606806407868304360600098F3
:1030F000002803D020681049014021603878C007BB
:1031000005D5606903218843B96801436161387856
:10311000800605D5606910218843F9680143616123
:103120000020F2BD1C100240007000408913000016
:10313000FFFCFFFFFFFFFEFFFFFFFFEF01480068FE
:10314000704700BFA401002010B50400FFF74DFF39
:10315000FA218900FEF7F0FA00F0A0F80022210021
:103160000020C04300F08FF8002010BD81B0012086
:103170002D490A6802430A600A68104000900098CE
:10318000802040054A6802434A6049680840009030
:10319000009801B0704710B586B0040001A8142152
:1031A000FFF78CFC20682149884222D180208002D0
:1031B0001F4C21680143216021680840009000985D
:1031C000C020C00001901220029001200390032033
:1031D00004900420059001A99020C005FEF7DEFFB1
:1031E00080208003A1680143A160A168084000908D
:1031F000009806B010BD00680F49884200D07047A3
:1032000080B5880D0B490A6802430A6009680840C6
:103210000090009800220021132000F034F81320C1
:1032200000F035F801BD00001810024000540040C5
:10323000141002401C1002400020004070477047EC
:1032400070477047704770477047FEE710B5C2007F
:1032500018231340FF249C40E2438907090E99403C
:10326000030007D5174B0007000F083880088000BF
:10327000181803E014489B089B00C01803681A4004
:103280001143016010BD80B5FFF7E0FF01BD0121D2
:10329000C006C00E81400D480160704710B5401E49
:1032A00080214904884201D3012010BD084C606090
:1032B00003210020C043FFF7C9FF0020A0600721C1
:1032C000216010BD1CED00E000E400E000E100E042
:1032D00010E000E01148016801220A4302604168E1
:1032E0000F4A0A40426001680E4A0A4002600168C3
:1032F0000D4A0A40026041680C4A0A404260C16AB5
:103300000F229143C162016B094A0A400263416B7B
:103310000122914341630021816070470010024007
:103320000CB8FF08FFFFF6FEFFFFFBFFFFFFC0FF2B
:10333000ECFEFFFF0000000000000000010203049B
:10334000060708097047FEE77047704780B500F030
:1033500029F801BD38B50E48FFF7C7FA0D480168D6
:10336000491C01600C480168491C0C4A13680C4C4C
:1033700025683C2908DB5B1C00213C2B04DB6D1C11
:103380000023182D00DB002525601360016031BD8E
:1033900054010020940100209801002058000020D2
:1033A0005400002002480168491C0160704700BFBA
:1033B000A401002070B40123002413E00168001D63
:1033C000194202D04D466D1E49190C60091D121F8D
:1033D000042AFAD20D00960701D50C80AD1C1A40C4
:1033E00000D02C700268001D002AE7D170BC704725
:1033F00010B5074979441831064C7C44163404E072
:10340000081D0A68891888470100A142F8D110BD3B
:1034100008000000240000009DFFFFFFA400000042
:1034200008010020000000007BDCFFFFA900000075
:103430006A0000000000002000F00DF8002801D014
:10344000FFF7D6FF00BF00BF002000BF00BFFEF7A0
:1034500023FB00F002F80120704780B500F002F86D
:1034600001BDFEE707463846FEF7ECF9FBE7FF290A
:1034700002D90020C04370470170012070470078D6
:10348000401E8041C043C00F7047FEE76E616E0072
:103490004E414E00696E6600494E46000148804725
:1034A00001480047D5320008AD34000800BF00BF16
:1034B00000BF00BFFFF7C0FF00002E004300FEE783
:1034C000FEE7FEE7FEE7FEE7FEE7FEE7FEE7FEE7D4
:1034D000FEE7FEE700F24A0001F217FF5DF0050784
:1034E000127A00B83400080452FF01F200BA141036
:1034F000010000BC0C120168F00217880000206F68
:0A350000127F34212C526F3C210190
:04000005080034AD0E
:00000001FF
